:100000000C943A000C9457000C9457000C94570031
:100010000C9457000C9457000C9457000C94570004
:100020000C9457000C9457000C9457000C945700F4
:100030000C9457000C9457000C9457000C945700E4
:100040000C9457000C9457000C9457000C945700D4
:100050000C9457000C9457000C9457000C945700C4
:100060000C9457000C9457000C9457000C945700B4
:100070000C94570011241FBECFEFD4E0DEBFCDBFDC
:1000800011E0A0E0B1E0E4E4FCE002C005900D92D4
:10009000A837B107D9F721E0A8E7B1E001C01D9268
:1000A000A239B207E1F70E9499050C9420060C943E
:1000B00000000E94150180ED97E00E94B60480EDDB
:1000C00097E00C9443020E942C0580E00E94FA0401
:1000D000882339F080910101815087FD86E080936B
:1000E000010182E00E94FA04882351F0809101010D
:1000F0008F5F87301CF48093010102C010920101D0
:1001000083E00E94FA04882339F080910001815035
:1001100087FD84E08093000181E00E94FA04882337
:1001200051F0809100018F5F85301CF480930001B5
:1001300008951092000108950E943A040E9413014C
:1001400082E091E00E94E800E0E0F1E061818081DE
:100150000C94AB000895962F2091790130917A018B
:10016000243F314078F061E00E9470028091790173
:1001700090917A01883E934041F410927A01109256
:10018000790103C060E00E94700280917901909132
:100190007A01019690937A01809379010895962FC0
:1001A00020917801293030F061E00E9470021092B5
:1001B000780103C060E00E947002809178018F5F37
:1001C000809378010895962F61E00E94700208954F
:1001D000EF92FF920F931F93CF93DF938C01095FF0
:1001E0001F4FD0E07801C0E0F70182917F0181309C
:1001F00039F0823049F46C2F8D2F0E94CF0004C05B
:100200006C2F8D2F0E94E300CF5FC73069F7DF5F4F
:10021000095F1F4FD53031F7DF91CF911F910F91BB
:10022000FF90EF9008950C941A03E1E6F0E080E867
:1002300080831082A89584B7877F84BFE0E6F0E0D2
:10024000808188618083108208951092800084E00C
:10025000809381001092850010928400089580910F
:100260008400909185000895AC0180918400909164
:1002700085009C01241B350B283E3340B0F70895C0
:100280002091840030918500820F931F0C943401DB
:10029000853098F4673088F421E030E001C0220F07
:1002A0006A95EAF7E82FF0E0E458FE4F922F909518
:1002B000808189234111822B80830895853080F4C9
:1002C000673070F421E030E001C0220F6A95EAF750
:1002D000E82FF0E0E458FE4F8081282381E009F404
:1002E00080E0089560917B01E62FF0E0E458FE4F36
:1002F00080810E94C00180917B018F5F853018F45E
:1003000080937B01089510927B010895ECE7F1E062
:100310001082118212821382148208950E949E011B
:100320000C9486019C01FC01FF2784A1832B84A3EC
:1003300095A1892F832B85A381E00895CF93DF9327
:10034000C0E6D1E0899199910E94920181E0CE3678
:10035000D807C1F783E090E40E94920180E090E822
:100360000E94920183E090E10E94920183E090E874
:100370000E94920183E090E2DF91CF910C94920170
:10038000E0918101F0E0EE0FFF1FEA5AFE4F20815D
:100390003181F901FF2795A1932B95A3E0E6F1E0C8
:1003A00097E020813181D901BB2795962C919597B3
:1003B00080FF03C03095232301C0232B95962C93F7
:1003C0008695915032969111ECCFE62FF0E0EE0F2A
:1003D000FF1FEA5AFE4F80819181FC01FF2785A112
:1003E0009095892385A3609381010895009789F0F2
:1003F000FC012381621B67FD09C0062E000C770BF0
:10040000248130E081E0621773070CF080E0817096
:10041000089580E00895CF93DF93FC01892B79F153
:100420008181481760F59281291748F59381A62F9D
:10043000A91BA7FD24C00A2E000CBB0BC481D0E071
:10044000AC17BD07E4F4622F0E94A205480F858116
:1004500090E0BD010E94AB050696242F26952695B7
:100460002695E80FF91FE20FF11D808190E047709B
:1004700002C0959587954A95E2F7817001C080E0AA
:10048000DF91CF910895CF93DF93EC010E94250176
:100490009E0140E050E062E17AE780E090E00E9457
:1004A000D0053093850120938401DF91CF91089589
:1004B00080918201909183010E94340120918201F8
:1004C000309183018091840190918501820F931F67
:1004D00090938301809382010895692F0C945E01AB
:1004E00041E0611101C040E0692F0C9448010C9477
:1004F00070025F926F927F928F929F92AF92BF92A3
:10050000CF92DF92EF92FF920F931F93CF93DF93DF
:10051000562E872E942E5C01E62EF72EC62F660FE0
:10052000DD0BC81BD10987FDD395072F770F110B62
:10053000091B110997FD1395D7FF03C077247A94FF
:1005400002C07724739417FF03C066246A9402C024
:1005500066246394D7FF03C0D195C195D10917FFD5
:1005600003C0119501951109C017D107A4F06E01C0
:10057000D594C794F92EA51411F1692D8A2D9F2DBC
:100580000E947002C01AD10AD7FE03C0CC0EDD1E35
:10059000F60CA70CF0CF6801D594C794E82EB814D8
:1005A00071F0692D8E2D9B2D0E947002CC1ADD0AF0
:1005B000D7FE03C0C00ED11EE70CB60CF0CF692DDC
:1005C000C701DF91CF911F910F91FF90EF90DF90C6
:1005D000CF90BF90AF909F908F907F906F905F90E3
:1005E0000C947002FF920F931F93CF93DF93D82F39
:1005F000F92E162FC72F042F792F0E947902402F32
:100600006D2F7C2F8D2F9F2D0E947902402F612FFF
:100610007C2F812F9F2D0E947902402F612F7C2FEC
:100620008D2F9C2F0E947902DF91CF911F910F9106
:10063000FF9008950E948601E5E2F1E0118A148698
:100640000895DF92EF92FF920F931F93CF93DF9362
:10065000D82E7B01162F0F2D809127019091280114
:10066000D0E0019799F50F2D0D1BE0912D01F09130
:100670002E018181C0E0D817B8F480912D019091AE
:100680002E01FC012281C21768F42C2F4D2F6D2DF5
:100690000E940B02682F8E2D8C0F902F0E947002EB
:1006A000CF5FEBCFDF5FDFCFE0912D01F0912E0127
:1006B0008281C81740F460E08E2D8C0F902F0E942D
:1006C0007002CF5FF1CF015030C0DF5F1E2D1D0FD4
:1006D000E0912D01F0912E018181C0E0D817A8F49E
:1006E00080912D0190912E01FC012281C21768F7A3
:1006F0002C2F4D2F6D2D0E940B02682F812F9F2DC7
:100700009C0F0E947002CF5FEBCFE0912D01F09122
:100710002E018281C81740F460E0812F9F2D9C0F2D
:100720000E947002CF5FF1CF1F5F812F902FDF916A
:10073000CF911F910F91FF90EF90DF9008950F934D
:100740001F93CF938C01C0E0F80181918F01882322
:1007500041F00E942103BC01CF5F853014F477FF84
:10076000F3CF8C2FCF911F910F9108950F931F936B
:10077000CF93DF93109231014093320110923501F3
:1007800000912D0110912E010115110509F449C0A8
:100790009B01EC01F801818160912B0170912C018A
:1007A00090E00E94AB05BC0180912F019091300137
:1007B0000E94BC05CB016AE070E00E94AB059093FB
:1007C00034018093330130932A012093290140E2C0
:1007D00050E0BE0186E391E00E9411068091250160
:1007E000909126010197E9F4FE0101900020E9F7BC
:1007F0003197BF016C1B7D0BF80181818F5F0E94D7
:10080000A205815020912701309128012130310526
:1008100011F095E001C097E0981718F48EEF8093DF
:100820003501DF91CF911F910F91089520912701FC
:10083000309128012130310511F070E001C076E0DF
:100840004FEF60E00E94B603089590E090932C0172
:1008500080932B010895909326018093250108959C
:100860009093280180932701089590932E018093FF
:100870002D010895809186019091870101969093B2
:1008800087018093860120913301309134018217D2
:10089000930708F469C01092870110928601E091D5
:1008A0003101F0E0EB5DFE4F818981110AC080913A
:1008B0003201823008F458C0815080933201109286
:1008C00031018091310190E0FC01EB5DFE4F218907
:1008D000222309F449C0409125015091260120911D
:1008E00035014115510521F04130510599F024C0E1
:1008F000211122C06091290170912A018A5C9E4FCA
:100900000E949F0390E0019790913101890F80939D
:10091000310112C06091290170912A014091270193
:10092000509128014130510511F4720F01C0621B32
:100930008A5C9E4F0E949F03809135018F5F809358
:100940003501082E000C990BE0912D01F0912E013C
:10095000218130E0281739073CF41092350180914D
:1009600031018F5F809331010C947201CF93DF933B
:10097000C5E2D1E09B878A870E948E0184E190E0E6
:100980009F838E83DF91CF910C941A03623071059F
:1009900019F170F46130710559F5FC01FF2724A1AC
:1009A000392F3095922F932394A385A183231DC0C3
:1009B0006330710541F064307105D1F4FC01FF270B
:1009C00084A1892B0FC0FC01FF2784A1892B84A35C
:1009D00085A19095892309C0FC01FF2784A1292FB7
:1009E0002095822384A385A1892B85A381E0089586
:1009F00080E00895E82FF0E0EE0FFF1FE857FE4F6C
:100A00008081882321F0918181E0892702C080E0E4
:100A100090E081700895E82FF0E0EE0FFF1FE85797
:100A2000FE4F8081811102C0818102C080E090E090
:100A300081700895E82FF0E0EE0FFF1FE857FE4F9A
:100A400080810895E82FF0E0EE0FFF1FE857FE4F7A
:100A5000908181E0892708957F928F929F92AF9233
:100A6000BF92CF92DF92EF92FF920F931F93CF939B
:100A7000DF93C8E8D1E05EE6C52E51E0D52E66E0F2
:100A8000762E88818983F601019111916F015801B9
:100A9000BB24F50124A1E12EFF2485A190E08E2145
:100AA0009F2130E02E213F21232B31F0892B51F45F
:100AB00033E0832E912C0DC0892B41F4882483943C
:100AC000912C07C094E0892E912C03C082E0882EDF
:100AD000912C64E070E0C8010E94C60462E070E0FE
:100AE000C8010E94C604872D8A95F1F7F50183A1FC
:100AF00090E0E822F92281E0EF2809F080E0888385
:100B0000B401C8010E94C6042296F1E0C239DF0791
:100B100009F0B7CFDF91CF911F910F91FF90EF9028
:100B2000DF90CF90BF90AF909F908F907F9008956F
:100B300008950E9459000E9458020E949C000E9441
:100B40006300F9CF002480FD060E660F11F0869534
:100B5000D1F7802D08950024552704C0080E591F91
:100B6000880F991F009729F076956795B8F371055E
:100B7000B9F7802D952F0895AA1BBB1B51E107C023
:100B8000AA1FBB1FA617B70710F0A61BB70B881F1D
:100B9000991F5A95A9F780959095BC01CD010895AC
:100BA000052E97FB1EF400940E94E70557FD07D021
:100BB0000E94EF0507FC03D04EF40C94E705509516
:100BC0004095309521953F4F4F4F5F4F0895909539
:100BD0008095709561957F4F8F4F9F4F0895A1E24B
:100BE0001A2EAA1BBB1BFD010DC0AA1FBB1FEE1FA7
:100BF000FF1FA217B307E407F50720F0A21BB30BF2
:100C0000E40BF50B661F771F881F991F1A9469F76D
:100C100060957095809590959B01AC01BD01CF01C9
:100C20000895FB01DC014150504048F001900D92C5
:100C30000020C9F701C01D9241505040E0F70895CF
:040C4000F894FFCF56
:100C4400030102020202000001000200020000008F
:100C5400000000020000000000000101000001008B
:100C6400000000000100000000000014000000006B
:100C74000000000000000000000000000000000070
:100C84000000000000000000000000000000000060
:100C940000000000000003400080031003800320D4
:100CA400004000200010000800040002000103803E
:080CB40003400320008003103F
:00000001FF
