:100000000C943A000C9457000C9457000C94570031
:100010000C9457000C9457000C9457000C94570004
:100020000C9457000C9457000C9457000C945700F4
:100030000C9457000C9457000C9457000C945700E4
:100040000C9457000C9457000C9457000C945700D4
:100050000C9457000C9457000C9457000C945700C4
:100060000C9457000C9457000C9457000C945700B4
:100070000C94570011241FBECFEFD4E0DEBFCDBFDC
:1000800012E0A0E0B1E0E6E1F2E102C005900D92DD
:10009000A235B107D9F722E0A2E5B2E001C01D9276
:1000A000A437B207E1F70E9469080C9409090C947F
:1000B0000000382F292F8091730263E00E94990875
:1000C000892F90E063E270E00E948808FC01E3570A
:1000D000FE4FA32FB22FCF01839621912D93E817C6
:1000E000F907D9F70895E9E6F1E0A6E4B1E08191D6
:1000F000813019F48C91882341F0119681E0EC381D
:10010000F807A9F781E090E0089580E090E0089575
:10011000292FFB01082E000C990B67E070E00E946C
:1001200088080696821B910927FD9395E80FF91F11
:10013000408308950E946C0284E893E00E940D06BB
:1001400084E893E00E949A030E942A070C944907CE
:100150001F93CF93DF9300D01F92CDB7DEB70E94DD
:1001600083060E9420070E94640119821A821B8262
:1001700080915202909153028130910561F120F0FB
:10018000029709F448C05DC00E942D07882379F0CA
:100190000E942F07811155C082E090E09093530296
:1001A0008093520289E691E00E9459004AC084E09F
:1001B0000E945106882309F444C081E090E09093A6
:1001C00053028093520289E691E00E94590081E037
:1001D0000E94370736C084E00E945106882389F1C7
:1001E00080918C01813069F50E949B018A830E9475
:1001F0009B019B83CE0101960E940A02813009F582
:1002000019810E949B01412F63E271E00E948800E6
:1002100082E090E012C069E671E0CE0101960E9492
:100220002402813071F419810E949B01412F66E400
:1002300071E00E94880081E090E0909353028093E7
:10024000520280E00E94F006882329F080918C0100
:10025000819580938C010F900F900F90DF91CF913B
:100260001F910895CF930E9491050E9408028091EA
:100270005202909153028130910539F018F00297A3
:10028000C1F020C080E091E01AC080918C018130E3
:1002900069F483E291E00E94DD010E949B01C92F75
:1002A0000E949B016C2FCF910C94A00186E491E0F9
:1002B00006C080918C018130C9F789E691E0CF9129
:1002C0000C94DD01CF91089580E00E9451068823AF
:1002D00039F080915502815087FD86E08093550268
:1002E00082E00E945106882351F0809155028F5F71
:1002F00087301CF48093550202C01092550283E0AF
:100300000E945106882339F080915402815087FD64
:1003100084E08093540281E00E945106882351F0CA
:10032000809154028F5F85301CF4809354020895AD
:1003300010925402089580915402909155020895AC
:10034000962F2091570230915802213E310578F0C6
:1003500061E00E94C7038091570290915802823C4D
:10036000914041F4109258021092570203C060E08D
:100370000E94C70380915702909158020196909372
:100380005802809357020895962F209156022330E9
:1003900030F061E00E94C7031092560203C060E093
:1003A0000E94C703809156028F5F80935602089582
:1003B000962F61E00E94C7030895EF92FF920F937A
:1003C0001F93CF93DF938C01095F1F4FD0E078011B
:1003D000C0E0F70182917F01813039F0823049F429
:1003E0006C2F8D2F0E94C40104C06C2F8D2F0E9492
:1003F000D801CF5FC73069F7DF5F095F1F4FD53086
:1004000031F7DF91CF911F910F91FF90EF900895F9
:100410000C947104CF93DF93EC01109259028981FF
:100420000E9437078A810E9437070E942D07882380
:1004300031F00E942F07888381E0809359028091D8
:100440005902DF91CF910895AF92BF92CF92DF9280
:10045000FF920F931F93CF93DF936C018B01109248
:1004600059020E942D07882339F00E942F07F601B8
:10047000818381E0809359020E943107882339F0FB
:100480000E942F07F601828381E080935902E801E0
:1004900085E0F82E5E01F7E0AF0EB11C8501F80192
:1004A00082918F01811101C082E0F60180830E9458
:1004B0003707C017D10799F7FA94E501F110EACF91
:1004C00080915902DF91CF911F910F91FF90DF90A2
:1004D000CF90BF90AF900895E1E6F0E080E8808390
:1004E0001082A89584B7877F84BFE0E6F0E0808122
:1004F00088618083108208951092800084E0809348
:1005000081001092850010928400089580918400EB
:10051000909185000895AC018091840090918500B0
:100520009C01241B350B283E3340B0F708952091E1
:10053000840030918500820F931F0C948B028530CC
:1005400098F4673088F421E030E001C0220F6A950A
:10055000EAF7E82FF0E0E55AFD4F922F9095808161
:1005600089234111822B80830895853080F4673080
:1005700070F421E030E001C0220F6A95EAF7E82F1D
:10058000F0E0E55AFD4F8081282381E009F480E006
:10059000089560915A02E62FF0E0E55AFD4F808100
:1005A0000E94170380915A028F5F853018F4809360
:1005B0005A02089510925A020895EBE5F2E0108273
:1005C000118212821382148208950E94F5020C9403
:1005D000DD029C01FC01FF2784A1832B84A395A14C
:1005E000892F832B85A381E00895CF93DF93C2E306
:1005F000D2E0899199910E94E90282E0C034D80743
:10060000C1F783E090E40E94E90280E090E80E9454
:10061000E90283E090E10E94E90283E090E80E9411
:10062000E90283E090E2DF91CF910C94E902E0913E
:100630006002F0E0EE0FFF1FE85DFD4F2081318189
:10064000F901FF2795A1932B95A3E2E3F2E097E050
:1006500020813181D901BB2795962C91959780FFF8
:1006600003C03095232301C0232B95962C938695A8
:10067000915032969111ECCFE62FF0E0EE0FFF1F74
:10068000E85DFD4F80819181FC01FF2785A1909558
:10069000892385A3609360020895009789F0FC0187
:1006A0002381621B67FD09C0062E000C770B248195
:1006B00030E081E0621773070CF080E081700895EC
:1006C00080E00895CF93DF93FC01892B79F181813C
:1006D000481760F59281291748F59381A62FA91B29
:1006E000A7FD24C00A2E000CBB0BC481D0E0AC17C0
:1006F000BD07E4F4622F0E947F08480F858190E0D7
:10070000BD010E9488080696242F269526952695D9
:10071000E80FF91FE20FF11D808190E0477002C0E1
:10072000959587954A95E2F7817001C080E0DF9149
:10073000CF910895CF93DF93EC010E947C029E013C
:1007400040E050E062E17AE780E090E00E94B90882
:100750003093640220936302DF91CF9108958091DA
:100760006102909162020E948B022091610230919D
:1007700062028091630290916402820F931F9093B2
:100780006202809361020895692F0C94B50241E0E2
:10079000611101C040E0692F0C949F020C94C703C3
:1007A0005F926F927F928F929F92AF92BF92CF9201
:1007B000DF92EF92FF920F931F93CF93DF93562E0A
:1007C000872E942E5C01E62EF72EC62F660FDD0BCA
:1007D000C81BD10987FDD395072F770F110B091B74
:1007E000110997FD1395D7FF03C077247A9402C0AF
:1007F0007724739417FF03C066246A9402C06624AA
:100800006394D7FF03C0D195C195D10917FF03C0E9
:10081000119501951109C017D107A4F06E01D59467
:10082000C794F92EA51411F1692D8A2D9F2D0E94D0
:10083000C703C01AD10AD7FE03C0CC0EDD1EF60CCA
:10084000A70CF0CF6801D594C794E82EB81471F0C6
:10085000692D8E2D9B2D0E94C703CC1ADD0AD7FE71
:1008600003C0C00ED11EE70CB60CF0CF692DC70136
:10087000DF91CF911F910F91FF90EF90DF90CF907C
:10088000BF90AF909F908F907F906F905F900C94EF
:10089000C703FF920F931F93CF93DF93D82FF92EA7
:1008A000162FC72F042F792F0E94D003402F6D2FB2
:1008B0007C2F8D2F9F2D0E94D003402F612F7C2FE6
:1008C000812F9F2D0E94D003402F612F7C2F8D2FD1
:1008D0009C2F0E94D003DF91CF911F910F91FF9029
:1008E00008950E94DD02E6EFF1E0118A1486089572
:1008F000DF92EF92FF920F931F93CF93DF93D82E47
:100900007B01162F0F2D8091F8019091F901D0E015
:10091000019799F50F2D0D1BE091FE01F091FF015C
:100920008181C0E0D817B8F48091FE019091FF0159
:10093000FC012281C21768F42C2F4D2F6D2D0E94CF
:100940006203682F8E2D8C0F902F0E94C703CF5FFC
:10095000EBCFDF5FDFCFE091FE01F091FF018281FD
:10096000C81740F460E08E2D8C0F902F0E94C703B3
:10097000CF5FF1CF015030C0DF5F1E2D1D0FE09122
:10098000FE01F091FF018181C0E0D817A8F48091A9
:10099000FE019091FF01FC012281C21768F72C2F04
:1009A0004D2F6D2D0E946203682F812F9F2D9C0F6C
:1009B0000E94C703CF5FEBCFE091FE01F091FF01F2
:1009C0008281C81740F460E0812F9F2D9C0F0E9408
:1009D000C703CF5FF1CF1F5F812F902FDF91CF91A2
:1009E0001F910F91FF90EF90DF9008950F931F9349
:1009F000CF938C01C0E0F80181918F01882341F0F1
:100A00000E947804BC01CF5F853014F477FFF3CFE8
:100A10008C2FCF911F910F9108950F931F93CF9318
:100A2000DF9310920202409303021092060200919B
:100A3000FE011091FF010115110509F449C09B0148
:100A4000EC01F80181816091FC017091FD0190E061
:100A50000E948808BC0180910002909101020E94CE
:100A6000A508CB016AE070E00E9488089093050217
:100A7000809304023093FB012093FA0140E250E09E
:100A8000BE0187E092E00E94FA088091F601909101
:100A9000F7010197E9F4FE0101900020E9F7319791
:100AA000BF016C1B7D0BF80181818F5F0E947F0865
:100AB00081502091F8013091F9012130310511F078
:100AC00095E001C097E0981718F48EEF8093060226
:100AD000DF91CF911F910F9108952091F8013091EE
:100AE000F9012130310511F070E001C076E04FEFDF
:100AF00060E00E940D05089590E09093FD018093C1
:100B0000FC0108959093F7018093F6010895909366
:100B1000F9018093F80108959093FF018093FE01FD
:100B20000895809165029091660201969093660205
:100B30008093650220910402309105028217930789
:100B400008F469C01092660210926502E0910202F8
:100B5000F0E0EA50FE4F818981110AC080910302C2
:100B6000823008F458C08150809303021092020230
:100B70008091020290E0FC01EA50FE4F218922237D
:100B800009F449C04091F6015091F7012091060205
:100B90004115510521F04130510599F024C0211132
:100BA00022C06091FA017091FB01895F9D4F0E9404
:100BB000F60490E0019790910202890F809302025F
:100BC00012C06091FA017091FB014091F8015091BF
:100BD000F9014130510511F4720F01C0621B895FA8
:100BE0009D4F0E94F604809106028F5F809306025B
:100BF000082E000C990BE091FE01F091FF0121817C
:100C000030E0281739073CF4109206028091020266
:100C10008F5F809302020C94C902CF93DF93C6EFDB
:100C2000D1E09B878A870E94E50284E190E09F8360
:100C30008E83DF91CF910C9471046230710519F1AC
:100C400070F46130710559F5FC01FF2724A1392F9B
:100C50003095922F932394A385A183231DC06330E5
:100C6000710541F064307105D1F4FC01FF2784A1C6
:100C7000892B0FC0FC01FF2784A1892B84A385A1A8
:100C80009095892309C0FC01FF2784A1292F209575
:100C9000822384A385A1892B85A381E0089580E028
:100CA0000895E82FF0E0EE0FFF1FE959FD4F808116
:100CB000882321F0918181E0892702C080E090E0C3
:100CC00081700895E82FF0E0EE0FFF1FE959FD4F06
:100CD0008081811102C0818102C080E090E081703A
:100CE0000895E82FF0E0EE0FFF1FE959FD4F8081D6
:100CF0000895E82FF0E0EE0FFF1FE959FD4F9081B6
:100D000081E0892708957F928F929F92AF92BF9240
:100D1000CF92DF92EF92FF920F931F93CF93DF93C7
:100D2000C7E6D2E050E4C52E52E0D52E66E0762E1E
:100D300088818983F601019111916F015801BB24CB
:100D4000F50124A1E12EFF2485A190E08E219F21B1
:100D500030E02E213F21232B31F0892B51F433E059
:100D6000832E912C0DC0892B41F488248394912CDF
:100D700007C094E0892E912C03C082E0882E912C2C
:100D800064E070E0C8010E941D0662E070E0C801E6
:100D90000E941D06872D8A95F1F7F50183A190E049
:100DA000E822F92281E0EF2809F080E08883B4018D
:100DB000C8010E941D062296F2E0C137DF0709F044
:100DC000B7CFDF91CF911F910F91FF90EF90DF9000
:100DD000CF90BF90AF909F908F907F90089508958F
:100DE00081110DC080917102882329F090917202C7
:100DF00081E0892702C080E090E08170089580E062
:100E0000089581110BC080917102811103C08091FE
:100E1000720202C080E090E08170089580E0089541
:100E2000811103C080917102089580E008958111BD
:100E300005C09091710281E08927089580E00895AE
:100E4000E1E7F2E08081818389B1881F8827881FCC
:100E50008083089557985F9808950C9497070C9491
:100E6000B8070C949D070C94A3070C94A9070E9443
:100E7000A9070E94A3078823E1F38CE291E0019780
:100E8000F1F70E94970781110C942F0708950C9495
:100E9000BF07CF93DF9300D01F92CDB7DEB780910D
:100EA0004A0290914B02A0914C0289839A83AB83B2
:100EB000509A589A0E9434088FE690E00E94CB071F
:100EC00081E090E00E94230861E070E081E090E022
:100ED0000E940F080E94FB07CE0101960E947F0727
:100EE0000F900F900F90DF91CF9108959C012150AA
:100EF00031093093CD0081508093CC000895CF9379
:100F0000DF93EC01888199810E9476078A819BEFAB
:100F1000980F943008F088E098E19093C9008550CC
:100F2000880F8093CA0081E0DF91CF91089580916E
:100F3000C800881F8827881F08958091C80085FBF6
:100F4000882780F908958091C80086FB882780F95A
:100F50000895CF93C82F0E949D078823E1F38091C5
:100F6000C80080648093C800C093CE00CF910895DC
:100F70008091C80087FFFCCF8091CE000895CF9369
:100F8000DF93EC018991882319F00E94A907FACF19
:100F9000DF91CF910895CF93DF931F92CDB7DEB746
:100FA0009E012F5F3F4F45E06DE472E00E944008D4
:100FB00091E0980F909327029981915097BD18BCAA
:100FC00095B5977039F095B5209127022770987FD5
:100FD000922B95BD298130E0E82FF0E0E35BFD4FD7
:100FE000C901008002C0880F991F0A94E2F70F9090
:100FF000DF91CF91089585B3897F85BB85B59091A9
:1010000027029770887F892B85BD089585B5887FD5
:1010100085BD089585B382FB882780F908950097E0
:1010200019F0019741F0089584B58F736295660FAA
:10103000660F607C05C084B563706295607F8F7CAD
:10104000682B64BD0895009741F0019759F484B569
:101050008E7F84BD84B5826002C084B58C7F84BDE0
:1010600081E0089580E0089514BC15BC16BC18BC3E
:1010700084B58E7F84BD84B5826084BD81E008958F
:10108000CF93DF93DC01FB0160E070E080E0C1E022
:10109000D0E08417C9F09191BE01092E02C0660FFD
:1010A000771F0A94E2F76F5F7F4F769567956A0F17
:1010B0007B1F02C0769567959A95E2F76F3F7105A1
:1010C00019F010F08F5FE5CFF9016083DF91CF91C8
:1010D00008950E949A0010925302109252020E94A8
:1010E000AF030E9432010E94A800809173028F5FBB
:1010F000809373028F3F99F710927302F0CF002410
:1011000080FD060E660F11F08695D1F7802D0895AB
:101110000024552704C0080E591F880F991F0097F7
:1011200029F076956795B8F37105B9F7802D952F5D
:101130000895991B79E004C0991F961708F0961B33
:10114000881F7A95C9F780950895AA1BBB1B51E1AA
:1011500007C0AA1FBB1FA617B70710F0A61BB70B27
:10116000881F991F5A95A9F780959095BC01CD01CC
:101170000895052E97FB1EF400940E94D00857FD99
:1011800007D00E94D80807FC03D04EF40C94D00876
:1011900050954095309521953F4F4F4F5F4F0895A3
:1011A00090958095709561957F4F8F4F9F4F0895D3
:1011B000A1E21A2EAA1BBB1BFD010DC0AA1FBB1F5B
:1011C000EE1FFF1FA217B307E407F50720F0A21BCD
:1011D000B30BE40BF50B661F771F881F991F1A943A
:1011E00069F760957095809590959B01AC01BD0164
:1011F000CF010895FB01DC014150504048F00190BF
:101200000D920020C9F701C01D9241505040E0F7F7
:061210000895F894FFCFE1
:1012160000000000000000000000000000000001C7
:1012260001010101000000000000000000000000B4
:1012360000000000000000000000000000000000A8
:101246000000000100000000000000010000000096
:101256000000000100000102000000000001020081
:101266000000000001000000000000000000000077
:101276000000000000000000000100000000000067
:101286000100000000000001000000000000000056
:101296000000000000000000000000000101000145
:1012A6000101010001000000000000010000000033
:1012B6000000000001010100000000000001000024
:1012C6000101000000010000000000000100000014
:1012D6000101000100000000000000000000000104
:1012E60001010101010101000000000000000000F1
:1012F60000000101010001010000000000000000E3
:1013060001010000000000000000000014000000C1
:1013160000000000000000000000000000000000C7
:1013260000000000000000000000000000000000B7
:10133600000000000000000103400080031003804D
:1013460003200040002000100008000400020001F5
:1013560003800340032000800310D000080003062A
:02136600080A73
:00000001FF
